:020000040800F2
:10000000008001205D030008AD030008AD03000877
:10001000AD030008AD030008AD03000800000000B8
:10002000000000000000000000000000AD03000818
:10003000AD03000800000000AD03000891020008B5
:1000400000000000AD030008AD030008AD03000888
:10005000AD030008AD030008AD030008AD030008C0
:10006000AD030008AD030008AD030008AD030008B0
:10007000AD030008AD030008AD030008AD030008A0
:10008000AD030008AD030008AD0300080000000048
:10009000000000000000000000000000AD030008A8
:1000A000AD030008AD030008AD030008AD03000870
:1000B000AD030008AD030008AD030008AD03000860
:1000C000AD030008AD030008AD030008AD03000850
:1000D000AD030008AD030008AD03000800000000F8
:1000E000AD030008AD030008AD03000800000000E8
:1000F000000000000000000000000000AD03000848
:1001000000000000AD030008AD030008AD030008C7
:1001100000000000000000000000000000000000DF
:10012000AD030008AD030008AD030008AD030008EF
:10013000AD03000800000000000000000000000007
:10014000000000000000000000000000AD030008F7
:10015000AD030008AD030008AD030008AD030008BF
:10016000AD030008AD03000800000000000000001F
:10017000000000000000000000000000000000007F
:10018000000000000000000000000000000000006F
:04019000AD030008B3
:1001940010B5054C237833B9044B13B10448AFF3BD
:1001A40000800123237010BD000000200000000027
:1001B400F803000808B5034B1BB103490348AFF328
:1001C400008008BD0000000004000020F8030008BF
:1001D40080B400AF064BD3F88830054A43F470036B
:1001E400C2F8883000BFBD465DF8047B704700BF8D
:1001F40000ED00E080B483B000AF03463960FB71CA
:1002040097F90730002B0ADB3B68DAB20C4997F9FF
:1002140007301201D2B20B4483F800230AE03B6892
:10022400DAB20849FB7903F00F03043B1201D2B29E
:100234000B441A7600BF0C37BD465DF8047B70474B
:1002440000E100E000ED00E080B582B000AF78602E
:100254007B68013BB3F1807F01D301230FE00A4A9D
:100264007B68013B53600F214FF0FF30FFF7C2FF63
:10027400054B00229A60044B07221A60002318469B
:100284000837BD4680BD00BF10E000E080B400AF79
:10029400064B1B68002B04D0044B1B68013B034A2C
:1002A400136000BFBD465DF8047B70471C0000204E
:1002B40080B483B000AF7860094B43F67F625A6024
:1002C4007B68084A136000BF064B1B68002BFBD1F8
:1002D40000BF00BF0C37BD465DF8047B704700BF0C
:1002E40010E000E01C00002080B582B000AF164B87
:1002F4007B60164B1B6B154A43F001031363144BCD
:100304001B68134A23F440631360114B1B68104AA3
:1003140043F4806313607B680E4AA2FB03239B09AA
:100324001846FFF791FF0A4B20229A614FF47A7026
:10033400FFF7BEFF064B4FF400129A614FF47A7038
:10034400FFF7B6FFEFE700BF0024F40000380240D7
:1003540000000240D34D62100D488546FFF738FF78
:100364000C480D490D4A002302E0D458C45004330C
:10037400C4188C42F9D30A4A0A4C002301E01360E2
:100384000432A242FBD300F011F8FFF7ADFFFEE701
:100394000080012000000020000000201804000854
:1003A4000000002020000020FEE7000070B50D4D85
:1003B4000D4C641BA4100026A64209D10B4D0C4C15
:1003C40000F018F8641BA4100026A64205D170BDE5
:1003D40055F8043B98470136EEE755F8043B984737
:1003E4000136F2E7100400081004000810040008A5
:1003F40014040008F8B500BFF8BC08BC9E4670475A
:0C040400F8B500BFF8BC08BC9E4670476D
:04041000B901000826
:040414009501000846
:040000050800035D8F
:00000001FF
